:1000000015C4000044C4000042C4000040C4000005
:100010003EC400003CC400003AC4000038C40000E4
:1000200036C4000034C4000032C4000030C40000F4
:100030002EC400002CC400002AC4000028C4000004
:1000400026C4000024C4000022C4000020C4000014
:100050001EC400001CC400001AC400000C94AF327F
:1000600016C400000C94D12B0C94A82B10C40000D3
:100070000EC400000CC400000AC4000008C4000044
:1000800006C4000004C4000002C4000000C4000054
:10009000FEC30000FCC30000FAC30000F8C3000068
:1000A000F6C30000F4C30000F2C30000F0C3000078
:1000B000EEC30000ECC30000EAC30000E8C3000088
:1000C000E6C30000E4C30000E2C30000E0C3000098
:1000D000DEC30000DCC30000DAC30000D8C30000A8
:1000E000D6C300003631393128312C3132317031EC
:1000F0003D31413147314B314F31553159315D310E
:100100007031633167316B31005EBCE2613FDD838A
:10011000C29C7E20A3FD1F419DC3217FFCA2401EE7
:100120005F01E3BD3E6082DC237D9FC1421CFEA0D7
:10013000E1BF5D0380DE3C62BEE0025CDF81633DC7
:100140007C22C09E1D43A1FF4618FAA427799BC5B7
:1001500084DA3866E5BB5907DB856739BAE40658A7
:100160001947A5FB7826C49A653BD987045AB8E697
:10017000A7F91B45C6987A24F8A6441A99C7257B87
:100180003A6486D85B05E7B98CD2306EEDB3510F77
:100190004E10F2AC2F7193CD114FADF3702ECC9267
:1001A000D38D6F31B2EC0E50AFF1134DCE90722C57
:1001B0006D33D18F0C52B0EE326C8ED0530DEFB147
:1001C000F0AE4C1291CF2D73CA947628ABF5174937
:1001D0000856B4EA6937D58B5709EBB536688AD427
:1001E00095CB2977F4AA4816E9B7550B88D6346A17
:1001F0002B7597C94A14F6A8742AC896154BA9F707
:10020000B6E80A54D7896B3500000000003E5B4F0A
:100210005B3E3E6B4F6B3E1C3E7C3E1C183C7E3C66
:10022000181C577D571C1C5E7F5E1C00183C180074
:10023000FFE7C3E7FF0018241800FFE7DBE7FF3004
:10024000483A060E2629792926407F050507407F72
:1002500005253F5A3CE73C5A7F3E1C1C08081C1CE5
:100260003E7F14227F22145F5F005F5F06097F01DB
:100270007F006689956A606060606094A2FFA294C6
:1002800008047E040810207E201008082A1C080894
:100290001C2A08081E101010100C1E0C1E0C3038E2
:1002A0003E3830060E3E0E06000000000000005FE3
:1002B00000000007000700147F147F14242A7F2AFF
:1002C00012231308646236495620500008070300C1
:1002D000001C2241000041221C002A1C7F1C2A080D
:1002E000083E080800807030000808080808000070
:1002F00060600020100804023E5149453E00427FE4
:10030000400072494949462141494D331814127F32
:100310001027454545393C4A4949314121110907D2
:100320003649494936464949291E00001400000053
:100330004034000000081422411414141414004125
:1003400022140802015909063E415D594E7C1211E2
:10035000127C7F494949363E414141227F4141411A
:100360003E7F494949417F090909013E4141517395
:100370007F0808087F00417F41002040413F017F06
:10038000081422417F404040407F021C027F7F04CE
:1003900008107F3E4141413E7F090909063E415117
:1003A000215E7F09192946264949493203017F0107
:1003B000033F4040403F1F2040201F3F4038403F08
:1003C000631408146303047804036159494D43001E
:1003D0007F4141410204081020004141417F040255
:1003E00001020440404040400003070800205454EC
:1003F00078407F28444438384444442838444428CA
:100400007F385454541800087E090218A4A49C781C
:100410007F0804047800447D40002040403D007F78
:100420001028440000417F40007C047804787C0858
:100430000404783844444438FC182424181824242C
:1004400018FC7C08040408485454542404043F4411
:10045000243C4040207C1C2040201C3C4030403C40
:1004600044281028444C9090907C4464544C4400A0
:100470000836410000007700000041360800020104
:100480000204023C2623263C1EA1A161123A4040F0
:10049000207A38545455592155557941225454786D
:1004A00042215554784020545579400C1E52721206
:1004B000395555555939545454593955545458008F
:1004C00000457C410002457D420001457C407D1293
:1004D00011127DF0282528F07C54554500205454F5
:1004E0007C547C0A097F4932494949323A444444A0
:1004F0003A324A4848303A4141217A3A42402078DB
:10050000009DA0A07D3D4242423D3D4040403D3CDB
:1005100024FF2424487E4943662B2FFC2F2BFF0900
:1005200029F620C0887E09032054547941000044F4
:100530007D413048484A32384040227A007A0A0ADF
:10054000727D0D19317D2629292F28262929292652
:1005500030484D4020380808080808080808382F97
:1005600010C8ACBA2F102834FA00007B0000081421
:100570002A142222142A14085500550055AA55AAF7
:1005800055AAFF55FF55FF000000FF00101010FF97
:1005900000141414FF001010FF00FF1010F010F0F2
:1005A000141414FC001414F700FF0000FF00FF14E3
:1005B00014F404FC141417101F10101F101F14142F
:1005C000141F00101010F0000000001F1010101079
:1005D0001F10101010F010000000FF10101010106D
:1005E00010101010FF10000000FF140000FF00FFAB
:1005F00000001F10170000FC04F414141710171447
:1006000014F404F40000FF00F71414141414141468
:10061000F700F7141414171410101F101F141414DB
:10062000F4141010F010F000001F101F0000001F45
:1006300014000000FC140000F010F01010FF10FF78
:10064000141414FF141010101F00000000F010FF0D
:10065000FFFFFFFFF0F0F0F0F0FFFFFF00000000F1
:1006600000FFFF0F0F0F0F0F3844443844FC4A4A75
:100670004A347E02020606027E027E02635549412A
:10068000633844443C04407E201E2006027E020261
:1006900099A5E7A5991C2A492A1C4C7201724C3075
:1006A0004A4D4D303048784830BC625A463D3E494C
:1006B0004949007E0101017E2A2A2A2A2A44445FF0
:1006C000444440514A444040444A51400000FF01E4
:1006D00003E080FF000008086B6B083612362436F2
:1006E000060F090F06000018180000001010003057
:1006F00040FF0101001F01011E00191D1712003CDF
:100700003C3C3C00000000000000220025002800C6
:100710002B002E0031003400020100000501080109
:100720000B01000020002300260029002C002F00D0
:10073000320000010000030106010901050505055D
:10074000070508080808020202020A0A0808040449
:100750000404010101010101010103030303030377
:100760000303040707070C0C0C0C0C0C0C0C020206
:10077000020206060606060606060B0B0B0B0B0B03
:100780000B0B010210202008081020401020408090
:100790000201020108040201010204081020408045
:1007A00080402010080402018004020180402010D3
:1007B000080402010804020101020408102040801C
:1007C00001020408102040800000210024002700BE
:1007D0002A002D0030003300010100000401070150
:1007E0000A0100000A0B02090C0D0E0807030401A0
:1007F00000000000000000000000000000000000F9
:1008000000000000000000000000000000001211C5
:1008100010000000000000000000000000000000C8
:100820000000000000000000D03E3E3C11241FBE2E
:10083000CFEFD1E2DEBFCDBF00E00CBF13E0A0E000
:10084000B2E0E2EAFBE800E00BBF02C007900D92C5
:10085000AC3CB107D9F725E0ACECB3E001C01D9288
:10086000A432B207E1F714E0C5E1D4E000E006C02D
:1008700021970109802FFE010E948343C431D107D3
:1008800080E00807A9F70E94443C0C94C045B8CB0F
:100890004F925F926F927F92AF92BF92CF92DF9210
:1008A000EF92FF920F931F93CF93DF93CDB7DEB7F5
:1008B000AA970FB6F894DEBF0FBECDBF61E08DE002
:1008C0000E94EB310E943A370E94001483E00E949C
:1008D000853460E070E083EB94E00E94B6370E94BC
:1008E00029290E94902819A61AA68E010F5F1F4F72
:1008F00088E2F80111928A95E9F79E01265D3F4F43
:10090000AE01475D5F4F67E170E089EF94E00E94C0
:10091000AF2160E084E40E94EB3184E40E9427323E
:10092000BC01990F880B990B0E94F14020E030E048
:1009300040EA50E40E94504120E030E040E85AE3B1
:100940000E9450412DEC3CEC4CE45EE30E94CF420F
:100950002B013C0161E086E20E94EB3161E086E21E
:100960000E94BD3161E088E20E94EB3161E088E2E3
:100970000E94BD3161E08AE20E94EB3161E08AE2CF
:100980000E94BD3161E084E30E94EB3161E084E3C9
:100990000E94BD3161E082E30E94EB3161E082E3BD
:1009A0000E94BD3161E080E30E94EB3161E080E3B1
:1009B0000E94BD3161E08EE20E94EB3161E08EE287
:1009C0000E94BD3184E08093C7040FEF1FEF1093A6
:1009D000C6040093C5041093C4040093C30410928A
:1009E000C0041092BF0487E390E09093C204809308
:1009F000C10463E672E083EB94E00E94A72B83E0DE
:100A0000B82EB092C7041093C6040093C504109387
:100A1000C4040093C30493E2C92ED12CD092C00425
:100A2000C092BF0480E590E09093C2048093C1041B
:100A300068E772E083EB94E00E94A72B20EEE22EA1
:100A4000FF24FA94F092C604E092C504F092C40424
:100A5000E092C30469A570E083EB94E00E945D28F6
:100A60006AE872E083EB94E00E94A72BAA24A39487
:100A7000A092C7046DE872E083EB94E00E94A72B7C
:100A8000B092C704D092C004C092BF0489E690E03F
:100A90009093C2048093C1041093C6040093C504CC
:100AA0001093C4040093C3046FE872E083EB94E0F6
:100AB0000E94A72BF092C604E092C504F092C404F1
:100AC000E092C3046AA570E083EB94E00E945D2885
:100AD0006EE972E083EB94E00E94A72BB092C7040A
:100AE000D092C004C092BF0482E890E09093C20408
:100AF0008093C1041093C6040093C5041093C404EA
:100B00000093C30461EA72E083EB94E00E94A72B98
:100B1000F092C604E092C504F092C404E092C304CB
:100B20000E942F300E94374383EB94E00E945D289F
:100B30006AE872E083EB94E00E94A72BA092C704BE
:100B40006DE872E083EB94E00E94A72B32E0F32E75
:100B5000F092C70485E991E09093C0048093BF04AC
:100B60008AE090E09093C2048093C1041093C6047D
:100B70000093C5041093C4040093C30422E0B3019E
:100B8000A20183EB94E00E94D02A64EB72E083EB35
:100B900094E00E94A72B8AA58C3400F560E084E3E2
:100BA0000E94BD31F092C704D092C004C092BF042D
:100BB00086EE90E09093C2048093C10480E098EFA9
:100BC0009093C6048093C5049093C4048093C30497
:100BD00066EB72E083EB94E00E94A72B8AA5803538
:100BE000B0F061E084E30E94BD3183E290E0909335
:100BF000C0048093BF0486EE90E09093C20480937B
:100C0000C10464E273E083EB94E00E94A72B89A502
:100C1000883238F160E088E20E94BD3160E08AE20B
:100C20000E94BD3182E08093C70483E290E09093FC
:100C3000C0048093BF048AEF90E09093C204809335
:100C4000C1048FE190E09093C6048093C504909313
:100C5000C4048093C3046EEC72E083EB94E00E94C2
:100C6000A72B89A58732D0F461E088E20E94BD31CC
:100C700061E08AE20E94BD3183E290E09093C0047B
:100C80008093BF048AEF90E09093C2048093C104E4
:100C900064E273E083EB94E00E94A72B89A586327F
:100CA00018F560E086E20E94BD3182E08093C704BF
:100CB00083E290E09093C0048093BF048EE091E0C3
:100CC0009093C2048093C10480E098EF9093C6048F
:100CD0008093C5049093C4048093C30461EE72E0D2
:100CE00083EB94E00E94A72B89A58732B0F061E0E6
:100CF00086E20E94BD3183E290E09093C00480932D
:100D0000BF048EE091E09093C2048093C10464E23A
:100D100073E083EB94E00E94A72B0E942F3020E029
:100D200030E044E152E40E94EB4018161CF160E010
:100D300080E30E94BD3182E08093C70483E290E0AB
:100D40009093C0048093BF048EEB90E09093C20414
:100D50008093C10480E098EF9093C6048093C5040B
:100D60009093C4048093C3046BEF72E083EB94E030
:100D70000E94A72B0E942F3020E030E04CE152E48B
:100D80000E94684387FD16C061E080E30E94BD3188
:100D900083E290E09093C0048093BF048EEB90E0D8
:100DA0009093C2048093C10464E273E083EB94E007
:100DB0000E94A72B20E030E040E451E4C301B201DF
:100DC0000E94EB4087FF02C060E001C061E08FE15C
:100DD0000E94BD3184E08093C70480E590E0909349
:100DE000C0048093BF0484E190E09093C204809398
:100DF000C10486E494E39093C6048093C504909361
:100E0000C4048093C30464E173E083EB94E00E9424
:100E1000A72B82E08093C7048AE491E09093C004FA
:100E20008093BF048CE291E09093C2048093C1044C
:100E30008FEF9FEF9093C6048093C5049093C404F2
:100E40008093C3040E94542860E67AEE80E090E02C
:100E50000E946B32E12CF12C02EC11E02CE132E02B
:100E600047E350E064E170E083EB94E00E943C399A
:100E70000FDDAA960FB6F894DEBF0FBECDBFDF918F
:100E8000CF911F910F91FF90EF90DF90CF90BF9087
:100E9000AF907F906F905F904F9008954F925F92C8
:100EA0006F927F928F929F92AF92BF92CF92DF927A
:100EB000EF92FF920F931F93CF93DF93CDB7DEB7DF
:100EC000AA970FB6F894DEBF0FBECDBF0E94AF3019
:100ED00061E08DE00E94EB310E943A370E940014DD
:100EE00083E00E94853460E070E083EB94E00E9430
:100EF000B6370E9429290E94902819A61AA68E01A9
:100F00000F5F1F4F88E2F80111928A95E9F79E0161
:100F1000265D3F4FAE01475D5F4F67E170E089EFAF
:100F200094E00E94AF2160E084E40E94EB3184E40D
:100F30000E942732BC01990F880B990B0E94F14047
:100F400020E030E040EA50E40E94504120E030E0F0
:100F500040E85AE30E9450412DEC3CEC4CE45EE347
:100F60000E94CF422B013C0186E10E9495314C0149
:100F700068E772E08EEC93E00E94A72B69A570E011
:100F80008EEC93E00E945D2860E273E08EEC93E0CB
:100F90000E94A72B6FE872E08EEC93E00E94A72BD3
:100FA0006AA570E08EEC93E00E945D286EE972E025
:100FB0008EEC93E00E94732A67E973E08EEC93E075
:100FC0000E94732A66E273E08EEC93E00E94A72BE6
:100FD0000E942F30AB01BC0122E08EEC93E00E9416
:100FE000D02A85E40E9427329093CD038093CC03CE
:100FF00062E373E08EEC93E00E94A72B6091CC0338
:101000007091CD038EEC93E00E945D2867E973E058
:101010008EEC93E00E94732A63E473E08EEC93E01D
:101020000E94A72BB4018EEC93E00E945D2867E933
:1010300073E08EEC93E00E94732A60E573E08EEC1F
:1010400093E00E94A72B22E0B301A2018EEC93E073
:101050000E94D02A67E973E08EEC93E00E94732A25
:1010600061E086E20E94EB3161E086E20E94BD31E0
:1010700061E088E20E94EB3161E088E20E94BD31CC
:1010800061E08AE20E94EB3161E08AE20E94BD31B8
:1010900061E084E30E94EB3161E084E30E94BD31B2
:1010A00061E082E30E94EB3161E082E30E94BD31A6
:1010B00061E080E30E94EB3161E080E30E94BD319A
:1010C00061E08EE20E94EB3161E08EE20E94BD3170
:1010D00084E08093C7040FEF1FEF1093C6040093C2
:1010E000C5041093C4040093C3041092C00410926A
:1010F000BF0487E390E09093C2048093C10463E649
:1011000072E083EB94E00E94A72B83E0D82ED0926C
:10111000C7041093C6040093C5041093C40400933D
:10112000C30493E2A92EB12CB092C004A092BF04D4
:1011300080E590E09093C2048093C10468E772E078
:1011400083EB94E00E94A72B20EEE22EFF24FA947A
:10115000F092C604E092C504F092C404E092C30485
:1011600069A570E083EB94E00E945D286AE872E074
:1011700083EB94E00E94A72BCC24C394C092C704B5
:101180006DE872E083EB94E00E94A72BD092C70435
:10119000B092C004A092BF0489E690E09093C2048C
:1011A0008093C1041093C6040093C5041093C40433
:1011B0000093C3046FE872E083EB94E00E94A72BD6
:1011C000F092C604E092C504F092C404E092C30415
:1011D0006AA570E083EB94E00E945D286EE972E0FE
:1011E00083EB94E00E94A72BD092C704B092C00476
:1011F000A092BF0482E890E09093C2048093C1045F
:101200001093C6040093C5041093C4040093C30450
:1012100063E373E083EB94E00E94A72BD092C704B2
:101220001093C6040093C5041093C4040093C30430
:10123000B092C004A092BF048BE990E09093C204E6
:101240008093C10461EA72E083EB94E00E94A72BD3
:10125000F092C604E092C504F092C404E092C30484
:101260000E942F300E94374383EB94E00E945D2858
:101270006AE872E083EB94E00E94A72BC092C70457
:101280006DE872E083EB94E00E94A72B82E08093EC
:10129000C70485E991E09093C0048093BF048AE07D
:1012A00090E09093C2048093C1041093C60400930D
:1012B000C5041093C4040093C30422E0B301A20147
:1012C00083EB94E00E94D02A64EB72E083EB94E01D
:1012D0000E94A72B8091CC039091CD03843F914035
:1012E000DCF0D092C70487E291E09093C004809331
:1012F000BF0484E890E09093C2048093C10480E02E
:1013000098EF9093C6048093C5049093C40480938F
:10131000C30465E673E00EC087E291E09093C004D9
:101320008093BF0484E890E09093C2048093C1044A
:1013300064E273E083EB94E00E94A72B8091CC03DE
:101340009091CD03843F9140E4F483E08093C704FF
:1013500088E291E09093C0048093BF0484E890E019
:101360009093C2048093C1048FE190E09093C604EF
:101370008093C5049093C4048093C30469E673E02A
:101380000EC088E291E09093C0048093BF0484E88B
:1013900090E09093C2048093C10464E273E083EB15
:1013A00094E00E94A72B892811F461E001C060E05D
:1013B0008EE20E94BD318AA58B3518F560E084E38A
:1013C0000E94BD3182E08093C70483E290E0909355
:1013D000C0048093BF0486EE90E09093C204809393
:1013E000C10480E098EF9093C6048093C504909365
:1013F000C4048093C30466EB72E083EB94E00E9424
:10140000A72B8AA58436B0F061E084E30E94BD3149
:1014100083E290E09093C0048093BF0486EE90E056
:101420009093C2048093C10464E273E083EB94E080
:101430000E94A72B89A5853238F160E088E20E94DE
:10144000BD3160E08AE20E94BD3182E08093C70432
:1014500083E290E09093C0048093BF048AEF90E011
:101460009093C2048093C1048FE190E09093C604EE
:101470008093C5049093C4048093C3046EEC72E01F
:1014800083EB94E00E94A72B89A58432D0F461E01D
:1014900088E20E94BD3161E08AE20E94BD3183E2B0
:1014A00090E09093C0048093BF048AEF90E0909303
:1014B000C2048093C10464E273E083EB94E00E9471
:1014C000A72B89A58F3118F560E086E20E94BD3117
:1014D00082E08093C70483E290E09093C0048093FD
:1014E000BF048EE091E09093C2048093C10480E039
:1014F00098EF9093C6048093C5049093C40480939E
:10150000C30461EE72E083EB94E00E94A72B89A5EF
:101510008332B0F061E086E20E94BD3183E290E068
:101520009093C0048093BF048EE091E09093C20436
:101530008093C10464E273E083EB94E00E94A72BE4
:101540000E942F3020E030E040EF51E40E94EB4059
:1015500018161CF160E080E30E94BD3182E08093A8
:10156000C70483E290E09093C0048093BF048EEBA5
:1015700090E09093C2048093C10480E098EF909330
:10158000C6048093C5049093C4048093C3046BEF96
:1015900072E083EB94E00E94A72B0E942F3020E0A2
:1015A00030E04CE052E40E94684387FD16C061E0E1
:1015B00080E30E94BD3183E290E09093C004809369
:1015C000BF048EEB90E09093C2048093C10464E268
:1015D00073E083EB94E00E94A72B20E030E040E42E
:1015E00051E4C301B2010E94EB4087FF02C060E0FA
:1015F00001C061E08FE10E94BD3184E08093C704A7
:1016000080E590E09093C0048093BF0484E190E073
:101610009093C2048093C10486E494E39093C6043B
:101620008093C5049093C4048093C3046DE673E073
:1016300083EB94E00E94A72B82E08093C7048AE4A6
:1016400091E09093C0048093BF048CE291E090936A
:10165000C2048093C1048FEF9FEF9093C6048093E0
:10166000C5049093C4048093C3040E94542860E688
:101670007AEE80E090E00E946B32E12CF12C02ECDB
:1016800011E02CE132E047E350E064E170E083EBED
:1016900094E00E943C3902DCAA960FB6F894DEBFB3
:1016A0000FBECDBFDF91CF911F910F91FF90EF90B3
:1016B000DF90CF90BF90AF909F908F907F906F9072
:1016C0005F904F900895CF92DF92EF92FF920F9329
:1016D0001F93CF93DF93EC017A016901E98DFA8DB5
:1016E00090818DA189238083888D8111E9C48D89A2
:1016F000823081F0833019F1813071F5EFE3F1E050
:101700009F01201B310BCB01E41BF50B86016F0100
:101710007B0113C08FE391E09C012C193D096C0102
:10172000C61AD70A8FED91E0AC01401B510B8C011A
:101730000E191F09C801F6017A01B9010FC08FED1A
:1017400091E09C012C193D09861B970BFA01680159
:101750008C01BA01790102C0CA01FB01AB8DBC8DBD
:101760003C912EA123232C932EB12F7C2EB973985C
:10177000A59820910201277E209302012091020169
:101780002F7920930201AD8DBE8D3C912FA1232393
:101790002C93AD8DBE8D3C912BA1232B2C932EB180
:1017A0002F7C2EB97398A59A20910201277E28607C
:1017B00020930201209102012F7920930201AD8D27
:1017C000BE8D3C912FA123232C93AD8DBE8D3C91DA
:1017D0002BA1232B2C93AB8DBC8D3C912AA1232BC9
:1017E0002C934EB1272F3327D901AA0FBB1FAA0F65
:1017F000BB1FA0734F7C4A2B4EB94EB1D901B59592
:10180000A795B595A795A870477F4A2B4EB944B3C5
:10181000D901AA0FBB1FA0724F7D4A2B44BB409138
:101820000201D90153E0B595A7955A95E1F7A87142
:10183000477E4A2B4093020140910201A5E0220F0E
:10184000331FAA95E1F72076342F3F79232B20937D
:101850000201AD8DBE8D3C912FA123232C93AD8D24
:10186000BE8D3C912BA1232B2C934EB19B01332792
:10187000B901660F771F660F771F60734F7C462B89
:101880004EB94EB1B90175956795759567956870B4
:10189000477F462B4EB944B3B901660F771F60727C
:1018A0004F7D462B44BB40910201B901B3E07595D1
:1018B0006795BA95E1F76871477E462B4093020120
:1018C0006091020145E0220F331F4A95E1F720762F
:1018D0006F79262B20930201AD8DBE8D3C912FA1F7
:1018E00023232C93AD8DBE8D3C912BA1232B2C93C8
:1018F000AB8DBC8D3C912EA123232C932EB12F7C3C
:101900002EB97398A59820910201277E2093020199
:10191000209102012F7920930201AD8DBE8D3C9163
:101920002FA123232C93AD8DBE8D3C912BA1232B76
:101930002C932EB12F7C2EB97398A59A2091020179
:10194000277E286020930201209102012F792062D6
:1019500020930201AD8DBE8D3C912FA123232C93AA
:10196000AD8DBE8D3C912BA1232B2C93AB8DBC8DCB
:101970003C912AA1232B2C934EB12D2D3327B90155
:10198000660F771F660F771F60734F7C462B4EB92B
:101990004EB1B90175956795759567956870477FE4
:1019A000462B4EB944B3B901660F771F60724F7D65
:1019B000462B44BB40910201B901A3E075956795A0
:1019C000AA95E1F76871477E462B4093020140914A
:1019D0000201B5E0220F331FBA95E1F72076342FCC
:1019E0003F79232B20930201AD8DBE8D3C912FA119
:1019F00023232C93AD8DBE8D3C912BA1232B2C93B7
:101A00002EB1DD24A601440F551F440F551F40730E
:101A10002F7C242B2EB92EB1A601559547955595AF
:101A200047954870277F242B2EB924B3A601440F75
:101A3000551F40722F7D242B24BB20910201A6014B
:101A4000A3E055954795AA95E1F74871277E242B89
:101A50002093020120910201A601B5E0440F551F19
:101A6000BA95E1F7342F30762F79C32EC22AC0926F
:101A70000201AD8DBE8D3C912FA123232C93AD8D02
:101A8000BE8D3C912BA1232B2C93AB8DBC8D3C9117
:101A90002EA123232C932EB12F7C2EB97398A598B9
:101AA00020910201277E20930201209102012F79CB
:101AB00020930201AD8DBE8D3C912FA123232C9349
:101AC000AD8DBE8D3C912BA1232B2C932EB12F7C61
:101AD0002EB97398A59A20910201277E2860209341
:101AE0000201209102012F79206420930201AD8D23
:101AF000BE8D3C912FA123232C93AD8DBE8D3C91A7
:101B00002BA1232B2C93AB8DBC8D3C912AA1232B95
:101B10002C934EB12F2D3327B901660F771F660F17
:101B2000771F60734F7C462B4EB94EB1B901759546
:101B30006795759567956870477F462B4EB944B396
:101B4000B901660F771F60724F7D462B44BB4091F1
:101B50000201B90153E0759567955A95E1F76871EF
:101B6000477E462B409302014091020165E0220F1F
:101B7000331F6A95E1F72076342F3F79232B20938A
:101B80000201AD8DBE8D3C912FA123232C93AD8DF1
:101B9000BE8D3C912BA1232B2C934EB19701332763
:101BA000B901660F771F660F771F60734F7C462B56
:101BB0004EB94EB1B9017595679575956795687081
:101BC000477F462B4EB944B3B901660F771F607249
:101BD0004F7D462B44BB40910201B901A3E07595AE
:101BE0006795AA95E1F76871477E462B40930201FD
:101BF00040910201B5E0220F331FBA95E1F720763C
:101C00004F79242B20930201AD8DBE8D3C912FA1E5
:101C100023232C93AD8DBE8D3C912BA1232B2C9394
:101C2000AB8DBC8D3C912EA123232C932EB12F7C08
:101C30002EB97398A59820910201277E2093020166
:101C4000209102012F7920930201AD8DBE8D3C9130
:101C50002FA123232C93AD8DBE8D3C912BA1232B43
:101C60002C932EB12F7C2EB97398A59A2091020146
:101C7000277E286020930201209102012066209394
:101C80000201AD8DBE8D3C912FA123232C93AD8DF0
:101C9000BE8D3C912BA1232B2C93AB8DBC8D3C9105
:101CA0002AA1232B2C934EB1212F3327B901660F84
:101CB000771F660F771F60734F7C462B4EB94EB16E
:101CC000B90175956795759567956870477F462B3F
:101CD0004EB944B3B901660F771F60724F7D462B32
:101CE00044BB40910201B90153E0759567955A953F
:101CF000E1F76871477E462B409302014091020153
:101D000065E0220F331F6A95E1F72076342F3F7983
:101D1000232B20930201AD8DBE8D3C912FA1232357
:101D20002C93AD8DBE8D3C912BA1232B2C932EB1EA
:101D30001127A801440F551F440F551F40732F7CD6
:101D4000242B2EB92EB1A801559547955595479549
:101D50004870277F242B2EB924B3A801440F551FA8
:101D600040722F7D242B24BB20910201A80133E077
:101D7000559547953A95E1F74871277E242B209396
:101D800002012091020145E0000F111F4A95E1F781
:101D900000762F79022B00930201AD8DBE8D3C9110
:101DA0002FA123232C93AD8DBE8D3C912BA1232BF2
:101DB0002C93AB8DBC8D3C912EA123232C932EB163
:101DC0002F7C2EB97398A59820910201277E20932D
:101DD0000201209102012F7920930201AD8DBE8D69
:101DE0003C912FA123232C93AD8DBE8D3C912BA133
:101DF000232B2C932EB12F7C2EB9739AA59820916A
:101E00000201277E20930201209102012F79209365
:101E10000201AD8DBE8D3C912FA123232C93AD8D5E
:101E2000BE8D3C912BA1232B2C93AB8DBC8D3C9173
:101E30002AA1232B2C934EB12F2F3327B901660FE4
:101E4000771F660F771F60734F7C462B4EB94EB1DC
:101E5000B90175956795759567956870477F462BAD
:101E60004EB944B3B901660F771F60724F7D462BA0
:101E700044BB40910201B90103E0759567950A954D
:101E8000E1F76871477E462B4093020140910201C1
:101E900055E0220F331F5A95E1F72076342F3F7912
:101EA000232B20930201AD8DBE8D3C912FA12323C6
:101EB0002C93AD8DBE8D3C912BA1232B2C932EB159
:101EC000FF27AF01440F551F440F551F40732F7C50
:101ED000242B2EB92EB1AF015595479555954795B1
:101EE0004870277F242B2EB924B3AF01440F551F10
:101EF00040722F7D242B24BB20910201AF01B3E05F
:101F000055954795BA95E1F74871277E242B209384
:101F100002012091020115E0EE0FFF1F1A95E1F773
:101F2000E0762F79E22BE0930201ED8DFE8D30817A
:101F30002FA123232083ED8DFE8D30812BA1232B18
:101F40002083EB8DFC8D30812EA1232320832EB1A5
:101F50002F7C2EB97398A59820910201277E20939B
:101F60000201209102012F7920930201ED8DFE8D57
:101F700030812FA123232083ED8DFE8D30812BA175
:101F8000232B20832EB12F7C2EB9739AA5982091F4
:101F90000201277E20930201209102012F79206205
:101FA00020930201ED8DFE8D30812FA1232320830C
:101FB000ED8DFE8D30812BA1232B2083EB8DFC8DAD
:101FC00030812AA1232B20834EB1292F3327B90139
:101FD000660F771F660F771F60734F7C462B4EB9D5
:101FE0004EB1B90175956795759567956870477F8E
:101FF000462B4EB944B3B901660F771F60724F7D0F
:10200000462B44BB40910201B901A3E07595679549
:10201000AA95E1F76871477E462B409302014091F3
:102020000201B5E0220F331FBA95E1F72076342F75
:102030003F79232B20930201ED8DFE8D30812FA15E
:1020400023232083ED8DFE8D30812BA1232B208334
:102050002EB19927AC01440F551F440F551F4073F3
:102060002F7C242B2EB92EB1AC0155954795559553
:1020700047954870277F242B2EB924B3AC01440F19
:10208000551F40722F7D242B24BB20910201AC01EF
:1020900063E0559547956A95E1F74871277E242BB3
:1020A000209302012091020175E0880F991F7A9513
:1020B000E1F78076922F9F79892B8093020155C397
:1020C000813009F05FC3EB8DFC8D90818EA1892357
:1020D00080838EB18F7C8EB97398A5988091020110
:1020E000877E80930201809102018F7980648093C2
:1020F0000201ED8DFE8D90818FA189238083ED8D6E
:10210000FE8D90818BA1892B8083EB8DFC8D90813E
:102110008AA1892B80832EB1872F9927AC01440F88
:10212000551F440F551F40732F7C242B2EB92EB101
:10213000AC0155954795559547954870277F242BB9
:102140002EB924B3AC01440F551F40722F7D242BB0
:1021500024BB20910201AC01B3E055954795BA9597
:10216000E1F74871277E242B209302012091020180
:1021700035E0880F991F3A95E1F78076922F9F7985
:10218000892B80930201ED8DFE8D90818FA1892393
:102190008083ED8DFE8D90818BA1892B8083EB8DCB
:1021A000FC8D90818EA1892380838EB18F7C8EB926
:1021B0007398A59880910201877E80930201809197
:1021C0000201806680930201ED8DFE8D90818FA1CA
:1021D00089238083ED8DFE8D90818BA1892B808357
:1021E000EB8DFC8D90818AA1892B80838EB19B0120
:1021F0003327A901440F551F440F551F40738F7C8F
:10220000842B8EB98EB1A901559547955595479563
:102210004870877F842B8EB984B3A901440F551F62
:1022200040728F7D842B84BB80910201A901F3E071
:1022300055954795FA95E1F74871877E842B8093F1
:10224000020160910201A5E0220F331FAA95E1F778
:1022500020766F79262B20930201ED8DFE8D9081E3
:102260008FA189238083ED8DFE8D90818BA1892B99
:102270008083EB8DFC8D90818EA1892380838EB12C
:102280008F7C80618EB97398A59880910201877EBA
:1022900080930201809102018F7980648093020112
:1022A000ED8DFE8D90818FA189238083ED8DFE8D34
:1022B00090818BA1892B8083EB8DFC8D90818AA1ED
:1022C000892B80832EB18F2D9927AC01440F551F88
:1022D000440F551F40732F7C242B2EB92EB1AC0117
:1022E00055954795559547954870277F242B2EB9CE
:1022F00024B3AC01440F551F40722F7D242B24BB07
:1023000020910201AC01E3E055954795EA95E1F78C
:102310004871277E242B2093020120910201F5E0D1
:10232000880F991FFA95E1F78076922F9F79892B74
:1023300080930201ED8DFE8D90818FA18923808392
:10234000ED8DFE8D90818BA1892B8083EB8DFC8D93
:1023500090818EA1892380838EB18F7C80618EB91C
:102360007398A59880910201877E809302018091E5
:102370000201806680930201ED8DFE8D90818FA118
:1023800089238083ED8DFE8D90818BA1892B8083A5
:10239000EB8DFC8D90818AA1892B80838EB1970172
:1023A0003327A901440F551F440F551F40738F7CDD
:1023B000842B8EB98EB1A9015595479555954795B2
:1023C0004870877F842B8EB984B3A901440F551FB1
:1023D00040728F7D842B84BB80910201A90163E050
:1023E000559547956A95E1F74871877E842B8093D0
:1023F00002014091020175E0220F331F7A95E1F747
:1024000020764F79242B20930201ED8DFE8D908153
:102410008FA189238083ED8DFE8D90818BA1892BE7
:102420008083EB8DFC8D90818EA1892380838EB17A
:102430008F7C80618EB97398A59880910201877E08
:1024400080930201809102018F7980930201ED8DCA
:10245000FE8D90818FA189238083ED8DFE8D9081EB
:102460008BA1892B8083EB8DFC8D90818AA1892B98
:1024700080832EB18D2D9927AC01440F551F440F39
:10248000551F40732F7C242B2EB92EB1AC015595CE
:102490004795559547954870277F242B2EB924B32F
:1024A000AC01440F551F40722F7D242B24BB20917B
:1024B0000201AC0133E0559547953A95E1F7487133
:1024C000277E242B209302012091020145E0880FF2
:1024D000991F4A95E1F78076922F9F79892B8093F7
:1024E0000201ED8DFE8D90818FA189238083ED8D7A
:1024F000FE8D90818BA1892B8083EB8DFC8D90814B
:102500008EA1892380838EB18F7C80618EB9739870
:10251000A59880910201877E80930201809102013B
:102520008F79806280930201ED8DFE8D90818FA165
:1025300089238083ED8DFE8D90818BA1892B8083F3
:10254000EB8DFC8D90818AA1892B80838EB1DD2457
:102550009601220F331F220F331F20738F7C822B93
:102560008EB98EB1960135952795359527952870AA
:10257000877F822B8EB984B39601220F331F20727E
:102580008F7D822B84BB809102019601E3E035951B
:102590002795EA95E1F72871877E822B80930201C7
:1025A00020910201C601F5E0880F991FFA95E1F725
:1025B00080762F79C82EC22AC0920201ED8DFE8D41
:1025C00090818FA189238083ED8DFE8D90818BA1D9
:1025D000892B8083EB8DFC8D90818EA18923808354
:1025E0008EB18F7C80628EB97398A598809102011C
:1025F000877E80930201809102018F79809302018E
:10260000ED8DFE8D90818FA189238083ED8DFE8DD0
:1026100090818BA1892B8083EB8DFC8D90818AA189
:10262000892B80832EB1812F9927AC01440F551F30
:10263000440F551F40732F7C242B2EB92EB1AC01B3
:1026400055954795559547954870277F242B2EB96A
:1026500024B3AC01440F551F40722F7D242B24BBA3
:1026600020910201AC0173E0559547957A95E1F709
:102670004871277E242B2093020120910201E5E07E
:10268000880F991FEA95E1F78076922F9F79892B21
:1026900080930201ED8DFE8D90818FA1892380832F
:1026A000ED8DFE8D90818BA1892B8083EB8DFC8D30
:1026B00090818EA1892380838EB18F7C80628EB9B8
:1026C0007398A59880910201877E80930201809182
:1026D00002018F79806280930201ED8DFE8D9081E1
:1026E0008FA189238083ED8DFE8D90818BA1892B15
:1026F0008083EB8DFC8D90818AA1892B80838EB1A4
:1027000011279801220F331F220F331F20738F7C54
:10271000822B8EB98EB198013595279535952795E1
:102720002870877F822B8EB984B39801220F331FC4
:1027300020728F7D822B84BB80910201980193E0EF
:10274000359527959A95E1F72871877E822B80939E
:1027500002012091020135E0000F111F3A95E1F7C7
:1027600000762F79022B00930201ED8DFE8D908172
:102770008FA189238083ED8DFE8D90818BA1892B84
:1027800080832FC08250823060F5CB01770FAA0B77
:10279000BB0BDC0199278827A601DD0C660B770BA4
:1027A0009A01AB01282B392B4A2B5B2B6AE2CE0115
:1027B0000E94F932C701FF0CAA0BBB0BBC015527C5
:1027C0004427012E000C220B330BD901C801842BA6
:1027D000952BA62BB72B9C01AD016BE2CE010E947D
:1027E000F932E98DFA8D908189A1892B8083DF915F
:1027F000CF911F910F91FF90EF90DF90CF900895B0
:102800000F931F93CF93DF930E943A3768EC70E0E9
:1028100080E090E00E946B32C3EBD4E082E0888FCE
:10282000E98DFA8D90818DA189238083EB8DFC8DBC
:1028300090818EA1892380838EB18F7C8EB973980D
:10284000A59802E011E0F8018081877E8083808175
:102850008F7980628083ED8DFE8D90818FA1892399
:102860008083ED8DFE8D90818BA1892B8083EB8DF4
:10287000FC8D90818AA1892B80838EB18F7C8EB94B
:102880007398A598F8018081877E808380818F79F5
:102890008083ED8DFE8D90818FA189238083ED8DC6
:1028A000FE8D90818BA1892B808362E370E080E0B4
:1028B00090E00E946B32EB8DFC8D90818EA189237C
:1028C00080838EB18F7C80628EB9739AA598F8014F
:1028D0008081877E808380818F798083ED8DFE8DDE
:1028E00090818FA189238083ED8DFE8D90818BA1B6
:1028F000892B8083EB8DFC8D90818AA1892B80832D
:102900008EB18F7C8EB97398A598F8018081877EEF
:10291000808380818F798083ED8DFE8D90818FA162
:1029200089238083ED8DFE8D90818BA1892B8083FF
:10293000EB8DFC8D90818EA1892380838EB18F7C5D
:102940008EB97398A598F801808188618083808111
:102950008F798083ED8DFE8D90818FA18923808377
:10296000ED8DFE8D90818BA1892B8083EB8DFC8D6D
:1029700090818AA1892B80838EB18F7C8EB9739AC6
:10298000A598F8018081877E80838081806680831E
:10299000ED8DFE8D90818FA189238083ED8DFE8D3D
:1029A00090818BA1892B8083EB8DFC8D90818EA1F2
:1029B000892380838EB18F7C8EB97398A598F80196
:1029C00080818861808380818F7980628083ED8DB2
:1029D000FE8D90818FA189238083ED8DFE8D908166
:1029E0008BA1892B8083EB8DFC8D90818AA1892B13
:1029F00080838EB18F7C8EB97398A59AF8018081FF
:102A0000877E808380818F798083ED8DFE8D90819C
:102A10008FA189238083ED8DFE8D90818BA1892BE1
:102A20008083EB8DFC8D90818EA1892380838EB174
:102A30008F7C8EB97398A598F8018081877E8083FA
:102A400080818F798083ED8DFE8D90818FA1892388
:102A50008083ED8DFE8D90818BA1892B80838EB13B
:102A60008F7C80618EB97398A598F8018081886108
:102A7000808380818F7980628083ED8DFE8D90814F
:102A80008FA189238083ED8DFE8D90818BA1892B71
:102A90008083EB8DFC8D90818AA1892B80838EB100
:102AA0008F7C80628EB9739AA598F8018081877EA9
:102AB0008083808180668083ED8DFE8D90818FA1E3
:102AC00089238083ED8DFE8D90818BA1892B80835E
:102AD0008EB18F7C80628EB9739AA598F80180813F
:102AE000877E8083808180668083ED8DFE8D9081DE
:102AF0008FA189238083ED8DFE8D90818BA1892B01
:102B00008083EB8DFC8D90818EA1892380838EB193
:102B10008F7C80618EB97398A598F8018081886157
:102B20008083808180668083ED8DFE8D90818FA172
:102B300089238083ED8DFE8D90818BA1892B8083ED
:102B4000EB8DFC8D90818AA1892B80838EB18F7C47
:102B50008EB97398A598F8018081886180838081FF
:102B60008F798083ED8DFE8D90818FA18923808365
:102B7000ED8DFE8D90818BA1892B8083EB8DFC8D5B
:102B800090818EA1892380838EB18F7C80618EB9E4
:102B9000739AA59AF8018081877E808380818F79DE
:102BA00080648083ED8DFE8D90818FA18923808349
:102BB000ED8DFE8D90818BA1892B8083EB8DFC8D1B
:102BC00090818AA1892B80838EB18F7C80628EB99F
:102BD0007398A598F8018081877E808380818F79A2
:102BE0008083ED8DFE8D90818FA189238083ED8D73
:102BF000FE8D90818BA1892B8083EB8DFC8D908144
:102C00008EA1892380838EB18F7C80628EB9739A66
:102C1000A59AF8018081877E808380818F79806486
:102C20008083ED8DFE8D90818FA189238083ED8D32
:102C3000FE8D90818BA1892B8083EB8DFC8D908103
:102C40008AA1892B80838EB18F7C80618EB9739825
:102C5000A59AF8018081877E8860808380818F7942
:102C600080628083ED8DFE8D90818FA1892380838A
:102C7000ED8DFE8D90818BA1892B8083EB8DFC8D5A
:102C800090818EA1892380838EB18F7C8EB97398B9
:102C9000A598F8018081877E808380818F798083E9
:102CA000ED8DFE8D90818FA189238083ED8DFE8D2A
:102CB00090818BA1892B80838EB18F7C8EB9739A82
:102CC000A59AF8018081877E8061808380818F79D9
:102CD00080628083ED8DFE8D90818FA1892380831A
:102CE000ED8DFE8D90818BA1892B8083EB8DFC8DEA
:102CF00090818AA1892B80838EB18F7C8EB9739845
:102D0000A598F8018081877E808380818F79808378
:102D1000ED8DFE8D90818FA189238083ED8DFE8DB9
:102D200090818BA1892B80838EB18F7C80628EB93C
:102D30007398A59AF8018081877E80838081806660
:102D40008083ED8DFE8D90818FA189238083ED8D11
:102D5000FE8D90818BA1892B8083EB8DFC8D9081E2
:102D60008EA1892380838EB18F7C80618EB9739A06
:102D7000A59AF8018081877E80618083808180664A
:102D80008083ED8DFE8D90818FA189238083ED8DD1
:102D9000FE8D90818BA1892B8083EB8DFC8D9081A2
:102DA0008AA1892B80838EB18F7C80618EB97398C4
:102DB000A598F8018081877E8083808180668083EA
:102DC000ED8DFE8D90818FA189238083ED8DFE8D09
:102DD00090818BA1892B8083EB8DFC8D90818EA1BE
:102DE000892380838EB18F7C8EB97398A59AF80160
:102DF0008081877E808380818F7980628083ED8D62
:102E0000FE8D90818FA189238083ED8DFE8D908131
:102E10008BA1892B8083EB8DFC8D90818AA1892BDE
:102E200080838EB18F7C8EB97398A598F8018081CC
:102E3000877E808380818F798083ED8DFE8D908168
:102E40008FA189238083ED8DFE8D90818BA1892BAD
:102E5000808366E970E080E090E00E946B32EB8D49
:102E6000FC8D90818EA1892380838EB18F7C8062BE
:102E70008EB9739AA598F8018081877E80838081BE
:102E80008F7980628083ED8DFE8D90818FA1892363
:102E90008083ED8DFE8D90818BA1892B8083EB8DBE
:102EA000FC8D90818AA1892B80838EB18F7C8EB915
:102EB0007398A598F8018081877E808380818F79BF
:102EC0008083ED8DFE8D90818FA189238083ED8D90
:102ED000FE8D90818BA1892B808364EF71E080E06F
:102EE00090E00E946B320FED11E02FE331E040E003
:102EF00050E060E070E0CE010E94630BDF91CF9163
:102F00001F910F910895EF92FF920F931F93CF930C
:102F1000DF93EC01790177FDF0C557FDEEC588859B
:102F20009985681779070CF0E8C58A859B8548174D
:102F300059070CF0E2C5E98DFA8D90818DA18923A6
:102F40008083888D81116EC28D89823059F08330E3
:102F5000B1F08130D1F48FE391E0841B950BAB018C
:102F6000BC0113C08FE391E09C01261B370BB90114
:102F70008FED91E09C01241B350BA90106C08FED5C
:102F800091E0861B970BBA01AC01EB8DFC8D908113
:102F90008EA1892380838EB18F7C8EB97398A5987A
:102FA00080910201877E80930201809102018F79D6
:102FB00080930201ED8DFE8D90818FA18923808306
:102FC000ED8DFE8D90818BA1892B80838EB18F7CBE
:102FD0008EB9739AA59880910201877E8093020131
:102FE000809102018F7980930201ED8DFE8D908199
:102FF0008FA189238083ED8DFE8D90818BA1892BFC
:103000008083EB8DFC8D90818AA1892B80832EB1EA
:10301000872F9927FC01EE0FFF1FEE0FFF1FE073B4
:103020002F7C2E2B2EB92EB1FC01F595E795F59549
:10303000E795E870277F2E2B2EB924B3FC01EE0F05
:10304000FF1FE0722F7D2E2B24BB20910201FC017B
:1030500003E0F595E7950A95E1F7E871277E2E2BB9
:10306000209302012091020135E0880F991F3A95C3
:10307000E1F78076922F9F79892B80930201ED8D65
:10308000FE8D90818FA189238083ED8DFE8D9081AF
:103090008BA1892B80838EB177279B01220F331F51
:1030A000220F331F20738F7C822B8EB98EB19B0130
:1030B00035952795359527952870877F822B8EB972
:1030C00084B39B01220F331F20728F7D822B84BB20
:1030D000809102019B01B3E035952795BA95E1F700
:1030E0002871877E822B809302018091020115E076
:1030F000660F771F1A95E1F760768F79682B6093DA
:103100000201ED8DFE8D90818FA189238083ED8D4D
:10311000FE8D90818BA1892B8083EB8DFC8D90811E
:103120008EA1892380838EB18F7C8EB97398A598E8
:1031300080910201877E80930201809102018F7944
:1031400080930201ED8DFE8D90818FA18923808374
:10315000ED8DFE8D90818BA1892B80838EB18F7C2C
:103160008EB9739AA59880910201877E809302019F
:10317000809102018F79806280930201ED8DFE8D36
:1031800090818FA189238083ED8DFE8D90818BA10D
:10319000892B8083EB8DFC8D90818AA1892B808384
:1031A0002EB1852F9927BC01660F771F660F771FF9
:1031B00060732F7C262B2EB92EB1BC0175956795B7
:1031C000759567956870277F262B2EB924B3BC01AF
:1031D000660F771F60722F7D262B24BB2091020182
:1031E000BC01A3E075956795AA95E1F76871277E04
:1031F000262B2093020120910201B5E0880F991F30
:10320000BA95E1F78076922F9F79892B80930201FE
:10321000ED8DFE8D90818FA189238083ED8DFE8DB4
:1032200090818BA1892B80838EB155279A01220F23
:10323000331F220F331F20738F7C822B8EB98EB1E8
:103240009A0135952795359527952870877F822B8C
:103250008EB984B39A01220F331F20728F7D822B87
:1032600084BB809102019A0163E0359527956A95A8
:10327000E1F72871877E822B809302018091020101
:1032800075E0440F551F7A95E1F740768F79482B0A
:1032900040930201ED8DFE8D90818FA18923808363
:1032A000ED8DFE8D90818BA1892B8083EB8DFC8D24
:1032B00090818EA1892380838EB18F7C8EB9739883
:1032C000A59880910201877E80930201809102017E
:1032D0008F7980930201ED8DFE8D90818FA18923DE
:1032E0008083ED8DFE8D90818BA1892B80838EB1A3
:1032F0008F7C8EB9739AA59880910201877E809306
:103300000201809102018F79806480930201ED8D2A
:10331000FE8D90818FA189238083ED8DFE8D90811C
:103320008BA1892B8083EB8DFC8D90818AA1892BC9
:1033300080832EB18F2D9927AC01440F551F440F68
:10334000551F40732F7C242B2EB92EB1AC015595FF
:103350004795559547954870277F242B2EB924B360
:10336000AC01440F551F40722F7D242B24BB2091AC
:103370000201AC0113E0559547951A95E1F74871A4
:10338000277E242B209302012091020105E0880F63
:10339000991F0A95E1F78076922F9F79892B809368
:1033A0000201ED8DFE8D90818FA189238083ED8DAB
:1033B000FE8D90818BA1892B80838EB1FF24970194
:1033C000220F331F220F331F20738F7C822B8EB965
:1033D0008EB1970135952795359527952870877F6C
:1033E000822B8EB984B39701220F331F20728F7DF9
:1033F000822B84BB80910201970163E0359527956C
:103400006A95E1F72871877E822B809302012091D3
:103410000201C70175E0880F991F7A95E1F7807660
:10342000922F55C3813009F0B2C2ED89E150E330EB
:1034300028F4F0E0E25BFD4F808101C080E0EB8D7D
:10344000FC8D20819EA1922390839EB19F7C9061F0
:103450009EB97398A59A90910201977E909302016C
:10346000909102019F79906490930201ED8DFE8D01
:1034700020819FA192239083ED8DFE8D20819BA1C1
:10348000922B9083EB8DFC8D20819AA1922B9083BF
:103490002EB190E02F7C2EB92EB1FC01F595E79569
:1034A000F595E795E870277F2E2B2EB9A5982091EA
:1034B0000201B3E095958795BA95E1F78871922F4F
:1034C000977E892B80930201809102018F798093EE
:1034D0000201ED8DFE8D90818FA189238083ED8D7A
:1034E000FE8D90818BA1892B8083EB8DFC8D90814B
:1034F0008EA1892380838EB18F7C8EB97398A59815
:1035000080910201877E80930201809102018F7970
:10351000806480930201ED8DFE8D90818FA18923BF
:103520008083ED8DFE8D90818BA1892B8083EB8D27
:10353000FC8D90818AA1892B80832EB1872F9927BA
:10354000FC01EE0FFF1FEE0FFF1FE0732F7C2E2BF1
:103550002EB92EB1FC01F595E795F595E795E87044
:10356000277F2E2B2EB924B3FC01EE0FFF1FE07234
:103570002F7D2E2B24BB20910201FC01B3E0F59599
:10358000E795BA95E1F7E871277E2E2B209302018B
:103590002091020115E0880F991F1A95E1F78076B6
:1035A000922F9F79892B80930201ED8DFE8D908162
:1035B0008FA189238083ED8DFE8D90818BA1892B36
:1035C0008083EB8DFC8D90818EA1892380838EB1C9
:1035D0008F7C8EB97398A59880910201877E809325
:1035E000020180910201806680930201ED8DFE8DC3
:1035F00090818FA189238083ED8DFE8D90818BA199
:10360000892B8083EB8DFC8D90818AA1892B80830F
:103610008EB177279B01220F331F220F331F207398
:103620008F7C822B8EB98EB19B0135952795359570
:1036300027952870877F822B8EB984B39B01220F38
:10364000331F20728F7D822B84BB809102019B01EE
:10365000F3E035952795FA95E1F72871877E822B5F
:103660008093020180910201A5E0660F771FAA9561
:10367000E1F760768F79682B60930201ED8DFE8D06
:1036800090818FA189238083ED8DFE8D90818BA108
:10369000892B8083EB8DFC8D90818EA18923808383
:1036A0008EB18F7C80618EB97398A598809102014C
:1036B000877E80930201809102018F7980648093DC
:1036C0000201ED8DFE8D90818FA189238083ED8D88
:1036D000FE8D90818BA1892B8083EB8DFC8D908159
:1036E0008AA1892B80832EB1852F9927BC01660F73
:1036F000771F660F771F60732F7C262B2EB92EB194
:10370000BC0175956795759567956870277F262B21
:103710002EB924B3BC01660F771F60722F7D262B54
:1037200024BB20910201BC01E3E075956795EA9501
:10373000E1F76871277E262B209302012091020178
:10374000F5E0880F991FFA95E1F78076922F9F791F
:10375000892B80930201ED8DFE8D90818FA18923AD
:103760008083ED8DFE8D90818BA1892B8083EB8DE5
:10377000FC8D90818EA1892380838EB18F7C8061A6
:103780008EB97398A59880910201877E809302017B
:1037900080910201806680930201ED8DFE8D908103
:1037A0008FA189238083ED8DFE8D90818BA1892B44
:1037B0008083EB8DFC8D90818AA1892B80838EB1D3
:1037C00055279A01220F331F220F331F20738F7C3E
:1037D000822B8EB98EB19A0135952795359527950F
:1037E0002870877F822B8EB984B39A01220F331FF2
:1037F00020728F7D822B84BB809102019A0103E0AD
:10380000359527950A95E1F72871877E822B80935D
:1038100002018091020195E0440F551F9A95E1F74E
:1038200040768F79482B40930201ED8DFE8D90817B
:103830008FA189238083ED8DFE8D90818BA1892BB3
:103840008083EB8DFC8D90818EA1892380838EB146
:103850008F7C8EB9739AA59880910201877E8093A0
:103860000201809102018F79806480930201ED8DC5
:10387000FE8D90818FA189238083ED8DFE8D9081B7
:103880008BA1892B8083EB8DFC8D90818AA1892B64
:1038900080832EB18F2D9927AC01440F551F440F03
:1038A000551F40732F7C242B2EB92EB1AC0155959A
:1038B0004795559547954870277F242B2EB924B3FB
:1038C000AC01440F551F40722F7D242B24BB209147
:1038D0000201AC01F3E055954795FA95E1F748717F
:1038E000277E242B2093020120910201A5E0880F5E
:1038F000991FAA95E1F78076922F9F79892B809363
:103900000201ED8DFE8D90818FA189238083ED8D45
:10391000FE8D90818BA1892B80838EB1FF2497012E
:10392000220F331F220F331F20738F7C822B8EB9FF
:103930008EB1970135952795359527952870877F06
:10394000822B8EB984B39701220F331F20728F7D93
:10395000822B84BB80910201970193E035952795D6
:103960009A95E1F72871877E822B809302018091DE
:103970000201970145E0220F331F4A95E1F7922F8C
:1039800090768F79E92EE82AE0920201A4C0825055
:10399000823008F0ACC00A851B85015011092885CA
:1039A000398521503109CE010E94630BE98DFA8DD2
:1039B00090818DA189238083EB8DFC8D90818EA1D8
:1039C000892380838EB180638EB9739AA598809184
:1039D0000201877E80930201809102018F7980939A
:1039E0000201ED8DFE8D90818FA189238083ED8D65
:1039F000FE8D90818BA1892B8083EB8DFC8D908136
:103A00008AA1892B80838EB19F2D990F990F907376
:103A10008F7C892B8EB98EB19F2D96959695987037
:103A2000877F892B8EB984B39F2D990F90728F7DDC
:103A3000892B84BB809102019F2D96959695969532
:103A40009871877E892B80930201809102019F2DBE
:103A50009295990F90768F79892B80930201ED8D45
:103A6000FE8D90818FA189238083ED8DFE8D9081C5
:103A70008BA1892B80838EB19E2D990F990F907306
:103A80008F7C892B8EB98EB1970136952795369507
:103A900027952870877F822B8EB984B39E2D990F2E
:103AA00090728F7D892B84BB80910201970143E046
:103AB000369527954A95E1F72871877E822B80936A
:103AC0000201909102018E2D8295880F80769F7958
:103AD000892B80930201ED8DFE8D90818FA189232A
:103AE0008083ED8DFE8D90818BA1892B8083E98D64
:103AF000FA8D908189A1892B8083DF91CF911F91CD
:103B00000F91FF90EF90089508952F923F924F925A
:103B10005F926F927F928F929F92AF92BF92CF925D
:103B2000DF92EF92FF920F931F93CF93DF93CDB766
:103B3000DEB72D970FB6F894DEBF0FBECDBF9D87C1
:103B40008C876A30A1F4DC0154962C9154971E9610
:103B50008D919C911F97B8E02B9F800D911D112492
:103B6000EC85FD859787868715861486F8C06D30AD
:103B700009F4F5C0AC85BD851C96CD90DC901D97F1
:103B800018968D919C911997C816D906BCF0EC85B2
:103B9000FD854489242F30E084859585F6E04F9F8C
:103BA000800D911D1124AC85BD851D969C938E932F
:103BB0001C9756964C914111AEC0D1C0EC85FD8545
:103BC00086849784828593858816990604F7F489FC
:103BD000F983AF2EB12CC60126E0F29F800D911D16
:103BE0001124181619069CF6C50123E0880F991FA9
:103BF0002A95E1F7880D991D1816190644F6AC852B
:103C0000BD8557968C91811103C0603B08F06F5FB2
:103C1000EC85FD850288F389E02DFD83EC83AC857E
:103C2000BD8550960D90BC91A02DBF83AE83B5E0AD
:103C30006B9FB001112416011A82FB01EC19FD09DA
:103C4000F987E8879401285F3F4F3B872A873A81AD
:103C5000353049F0E885F985E20DF31DE85FFD4F49
:103C600054915B8301C01B82240134018B8180FF4E
:103C700013C0AC85BD85ED91FC91B981B13031F4B3
:103C80000084F185E02D2E813F8119C00288F389DF
:103C9000E02DEE80FF801EC0EC81FD812E813F81F2
:103CA000E217F307F1F0AC85BD85ED91FC91B98188
:103CB000B13059F40084F185E02D2C813D81A301C0
:103CC000B1018C859D8519950CC00288F389E02D82
:103CD000EC80FD8085019501A201B6018C859D8552
:103CE0001995EB81E695EB83FFEF6F1A7F0A4A0C7B
:103CF0005B1C2A853B852615370509F0B7CF3A812D
:103D00003F5F3A835FEF251A350ACA0CDB1C363059
:103D100009F09DCF3CCF4AEF4203B001439F700DA5
:103D20001124AC85BD8518964D915C911997460F6D
:103D3000571F481759079CF483E0220F331F8A95B9
:103D4000E1F71E968D919C911F97280F391F1F96A2
:103D50003C932E931E971D961C921E921C9781E0F9
:103D600090E02D960FB6F894DEBF0FBECDBFDF9169
:103D7000CF911F910F91FF90EF90DF90CF90BF9068
:103D8000AF909F908F907F906F905F904F903F90FB
:103D90002F900895EF92FF920F931F93DC011A96D4
:103DA0000D911C911B9718962D913C911997ED91AF
:103DB000FC910288F389E02D7B0140E050E060E057
:103DC00070E019951F910F91FF90EF9008956F92F9
:103DD0007F928F929F92AF92BF92CF92DF92EF929B
:103DE000FF920F931F93CF93DF936C015A01480109
:103DF000EB013B01620E731EC615D70574F4D601A4
:103E0000ED91FC910484F585E02D87019401A501D5
:103E1000BE01C60119952196EFCFDF91CF911F9179
:103E20000F91FF90EF90DF90CF90BF90AF909F9059
:103E30008F907F906F900895EF92FF920F931F9352
:103E4000260F371F21503109DC01ED91FC910284CE
:103E5000F385E02D78018A0119951F910F91FF904C
:103E6000EF900895EF92FF920F931F93240F351F49
:103E700021503109DC01ED91FC910284F385E02DA4
:103E8000780189019B0119951F910F91FF90EF9087
:103E900008956F927F928F929F92AF92BF92CF922E
:103EA000DF92EF92FF920F931F93CF93DF93EC017A
:103EB0004B015A0169013801E881F9810684F785CF
:103EC000E02D87011995A501460D571D4150510957
:103ED000E881F9810684F785E02D9601B401CE01D1
:103EE0001995E881F9810484F585E02D9301A501F8
:103EF000B401CE011995C80CD91CB60161507109E5
:103F0000E881F9810484F585E02D9301A501CE01B6
:103F10001995DF91CF911F910F91FF90EF90DF9056
:103F2000CF90BF90AF909F908F907F906F900895AB
:103F30002F923F924F925F926F927F928F929F92B9
:103F4000AF92BF92CF92DF92EF92FF920F931F93A7
:103F5000CF93DF9300D000D0CDB7DEB72C017E83A6
:103F60006D836A015901C801FC82EB824801841A01
:103F7000950A97FE03C091948194910835012D8193
:103F80003E81621A730A77FE03C0719461947108CE
:103F9000681479045CF43A2D2B2D5C01832F922F49
:103FA0003D812E81DE82CD82C32ED22EAD81BE8197
:103FB000AA16BB065CF43C2D2D2D6C01832F922F8D
:103FC0003D812E81BE82AD82A32EB22E85012D8130
:103FD0003E81021B130B1C012C183D0837FE03C049
:103FE000319421943108780117FF03C03FEFE31AA1
:103FF000F30AF594E794C816D9062CF08FEF9FEFDB
:104000009A83898304C0A1E0B0E0BA83A9832D819B
:104010003E81A216B30624F1D201ED91FC910084F9
:10402000F185E02D2B813C816814790424F44D81C5
:104030005E81B60103C0A6016D817E81C201199522
:10404000E218F308F7FE06C029813A81C20ED31E9A
:10405000E00EF11E8D819E8101969E838D83D7CFC8
:1040600026960FB6F894DEBF0FBECDBFDF91CF917D
:104070001F910F91FF90EF90DF90CF90BF90AF9086
:104080009F908F907F906F905F904F903F902F9078
:104090000895089580E090E00895FC0190810180EA
:1040A000F281E02D892F809560FF12C0F894228163
:1040B000822382838181892B8183A3E2B0E01197DF
:1040C000F1F78281982B9283789487ED90E011C06C
:1040D000F8942281822382838181892B8183AFEFAF
:1040E000B0E01197F1F78281982B928378948FE05A
:1040F00090E00197F1F708950F931F93CF93DF930B
:10410000DA01A9019801EC017F836E83FB01EE5770
:10411000F84FE491E887FB01E45CF84FE491E9870C
:10412000E881F9810480F581E02DBD01DF91CF9117
:104130001F910F9119948F929F92AF92BF92CF923D
:10414000DF92EF92FF920F931F93CF93DF93CDB740
:10415000DEB7AC970FB6F894DEBF0FBECDBFDC0163
:104160001696ED91FC911797319609F46DC069018F
:104170008A017B014C01FE0131965F0188E2DF017B
:104180001D928A95E9F7D401ED91FC910484F5859F
:10419000E02DB501C4011995009709F057C01CA680
:1041A0001BA61AA619A6D401ED91FC910684F785E9
:1041B000E02D9E01275D3F4FAE01455D5F4FB5018C
:1041C000C4011995009709F041C0C114D10439F018
:1041D00088E2F501D60101900D928A95E1F7E1148C
:1041E000F10481F08CA5682F782F770F770B072EBD
:1041F000000C880B990B0E94F140F70160837183DA
:10420000828393830115110589F08AA5682F782F81
:10421000770F770B072E000C880B990B0E94F1404B
:10422000D8016D937D938D939C9313978BA59CA53B
:10423000009739F429A53AA5232B41F486E190E0B3
:1042400005C080E090E002C087E190E0AC960FB638
:10425000F894DEBF0FBECDBFDF91CF911F910F91BC
:10426000FF90EF90DF90CF90BF90AF909F908F9096
:1042700008958F929F92AF92BF92CF92DF92EF926A
:10428000FF920F931F93CF93DF93EC018B015A01A1
:104290007901E881F9810284F385E02D1995C82E12
:1042A000B801685F7F4FE881F9810284F385E02DD2
:1042B000CE011995D82EB801605F7F4FE881F98152
:1042C0000284F385E02DCE011995882EB801685E31
:1042D0007F4FE881F9810284F385E02DCE011995A5
:1042E000982EB801605E7F4FE881F9810284F385E2
:1042F000E02DCE0119959C2D9D0D980D990D8913DA
:104300000FC0892D90E09829F501918380838D2D30
:1043100090E09C29F7019183808380E090E002C0C7
:1043200085E190E0DF91CF911F910F91FF90EF9089
:10433000DF90CF90BF90AF909F908F90089547E00F
:1043400050E080E0FB012191BF01042E01C0220F4B
:104350000A94EAF7820F41505109A0F708950F938C
:104360001F93CF93DF93DA01A9019801EC017F83BA
:104370006E83FB01EE57F84FE491E887FB01E45CA4
:10438000F84FE491E987E881F9810190F081E02D0F
:10439000BD01DF91CF911F910F911994CF92DF92C0
:1043A000EF92FF920F931F93CF93DF93CDB7DEB7BA
:1043B00028970FB6F894DEBF0FBECDBFDC0116966E
:1043C000ED91FC911797319691F18A017B011D8245
:1043D0001E821F82188619821A821B821C82DC01AF
:1043E000ED91FC910480F581E02DAE014F5F5F4FB0
:1043F000BE016B5F7F4F19956C01892BB1F4E114FD
:10440000F10441F06D817E818F8198850E94374350
:10441000F70160830115110541F069817A818B8173
:104420009C810E943743D8016C93C60102C087E18A
:1044300090E028960FB6F894DEBF0FBECDBFDF9197
:10444000CF911F910F91FF90EF90DF90CF90089543
:10445000EF92FF920F931F93CF93DF93EC018B01A9
:1044600088E2FB0111928A95E9F761E08E810E9452
:10447000EB3160E08E810E94BD3164E170E080E04C
:1044800090E00E946B3261E08E810E94BD3160E05D
:104490008E810E94EB318FE590E00197F1F7E88182
:1044A000F9810084F185E02D26E030E04AE050E01B
:1044B00060E0CE0119956E3171058105910534F4E6
:1044C000B82FA72F962F882780616FC0E881F981C8
:1044D0000084F185E02D26E030E04AE050E061E024
:1044E000CE011995623371058105910534F4B82F19
:1044F000A72F962F8827816158C07801F8E2EF0E28
:10450000F11CE881F9810084F185E02D26E030E09E
:104510004AE050E060E0CE011995683171058105EF
:10452000910534F4B82FA72F962F882782613DC0BC
:10453000E881F9810084F185E02D26E030E04AE051
:1045400050E061E0CE0119956B3071058105910550
:1045500034F4B82FA72F962F8827836126C021E037
:1045600069327105810591050CF420E0F801219371
:104570008F01EE15FF0529F6E881F9810084F185A8
:10458000E02D26E030E04AE050E060E0CE011995F1
:10459000683171058105910534F4B82FA72F962F46
:1045A0008827846102C080E090E0DF91CF911F9165
:1045B0000F91FF90EF9008953F924F925F926F920C
:1045C0007F928F929F92AF92BF92CF92DF92EF92A3
:1045D000FF920F931F93CF93DF93EC01162F7A0175
:1045E00069010E9446324B015C01112311F03884AD
:1045F00001C0312C2701440C551C440C551C85E08E
:10460000481A51083601660C771C660C771C85E049
:10461000681A710800E010E060E070E0CB012A81C8
:104620003B814C815D8126173707480759072CF4D9
:104630004FEF3FEF2FEF9FEF2BC00115110531F426
:1046400082E0E816F1044CF0C20105C082E0C81611
:10465000D1041CF0C3010197F1F70E94463268199A
:1046600079098A099B09E985F0E0EE0FFF1FEE5DED
:10467000F84FA591B4913C910F5F1F4F28852323DC
:10468000321203C097FFCBCFD3CF462F372F282F1F
:10469000642F732F822FDF91CF911F910F91FF9085
:1046A000EF90DF90CF90BF90AF909F908F907F90D2
:1046B0006F905F904F903F900895DC0180E06150D3
:1046C00040F09D91E82FE927F0E0E85FFE4F8491EC
:1046D000F6CF0895DF92EF92FF920F931F93CF933F
:1046E000DF93EC01D62EE42E08E010E0FF24F394D3
:1046F00061E08D2D8F2109F460E0CE01CEDCFF0C4E
:1047000001501109A9F7E11010C0F894E981FA816C
:1047100091818881809589238183E981FA819281C1
:1047200088818095892382837894DF91CF911F912E
:104730000F91FF90EF90DF900895EF92FF920F930B
:104740001F93CF93DF938C017B0140E065E5C2DFCF
:10475000E70188E0E80EF11C699140E0C801BADF8A
:10476000CE15DF05C9F7DF91CF911F910F91FF9013
:10477000EF900895FC0190810180F281E02DF89482
:104780008181892B81832281892F8095282322830F
:10479000A7E0B0E01197F1F7218182238183A3E2A2
:1047A000B0E01197F1F780817894EFECF0E0319769
:1047B000F1F7982381E009F480E00895DC012C9161
:1047C0001196ED91FC911297F8948181922F90951A
:1047D0008923818378948DE743E050E0815021F173
:1047E000DA011197F1F730813223C1F3F894828115
:1047F000892382838181822B81837894ABE7B7E020
:104800001197F1F7F89481819823918383E191E0E6
:104810000197F1F78081282381E009F080E0789406
:10482000E3E6F6E03197F1F70895BF92CF92DF9279
:10483000EF92FF920F931F93CF93DF93EC01D62E4D
:10484000C72E8D85811156C0CE01B8DF811104C0FD
:104850001B861D861C8662C040E060EFCE013ADFF9
:1048600001E0E12CB12C11E0CE0184DFF82ECE0165
:1048700081DF91E0F91203C08130B1F433C02E2DF5
:1048800030E0F8121BC08B85181738F4FE01E20FD8
:10489000F31F8381802341F402C0181729F0F12C03
:1048A000193058F41C8709C0FE01EE0DF11D8381FB
:1048B000802B8383FF24F39409C0B12EFE01E20F05
:1048C000F31F9381802F8095892383836F2DCE01E1
:1048D000E4DB1F5F000F11F4E39401E087E08E1525
:1048E00008F0C2CF113430F0BB86B11012C081E0A5
:1048F0008D870FC01B861D861C8680E0DE01139607
:10490000ED2DFC2D2B969D919193AC17BD07D9F7FA
:1049100005C08B81882371F381E0F0CFDF91CF91C7
:104920001F910F91FF90EF90DF90CF90BF9008956F
:10493000CF93DF93CDB7DEB729970FB6F894DEBFDC
:104940000FBECDBFBE016F5F7F4F0E94BE2F882379
:1049500089F08D818F3361F020F48F3159F489E033
:104960000CC08F3519F08F3739F004C08BE005C0CB
:104970008AE003C080E001C08CE029960FB6F8946D
:10498000DEBF0FBECDBFDF91CF9108956F927F92B2
:104990008F929F92AF92BF92CF92DF92EF92FF924F
:1049A0000F931F93CF93DF93FC0149015A017B01C1
:1049B000A18DB28D9C9185A189238C93A38DB48DFB
:1049C0009C9186A189238C93808D823001F1811185
:1049D0001CC08EB18F7C8EB97398A598809102010E
:1049E000877E80930201809102018F79809302017A
:1049F000A58DB68D9C9187A189238C93A58DB68DAD
:104A00009C9183A1892B8C9310C0833071F48EB15B
:104A100080638EB9739AA59880910201877E8093F6
:104A20000201809102018F790EC08EB18F7C8EB908
:104A3000739AA59880910201877E809302018091EC
:104A400002018F79806480930201A58DB68D9C91BF
:104A500087A189238C93A58DB68D9C9183A1892BE9
:104A60008C93A38DB48D9C9182A1892B8C932EB1B4
:104A7000872F90E0AC01440F551F440F551F342F72
:104A80003073C32E2F7C232B2EB92EB1AC0155953C
:104A9000479555954795A42FA870DA2E277F2A2B86
:104AA0002EB924B3AC01440F551FD42FD0722F7DE3
:104AB0002D2B24BB20910201AC0113E055954795A5
:104AC0001A95E1F7C42FC871277E2C2B2093020181
:104AD0002091020105E0880F991F0A95E1F7807681
:104AE000922F9F79982B90930201A58DB68D2C91D2
:104AF00097A192239C93A58DB68D2C9193A1922B77
:104B00009C939EB1AB0155279A01220F331F220FB0
:104B1000331FB22FB0737B2E9F7C9B2B9EB99EB10F
:104B20009A013595279535952795622F6870662EE1
:104B3000977F962B9EB994B39A01220F331F722F41
:104B400070729F7D972B94BB209102018A01B3E084
:104B500015950795BA95E1F7902F9871277E292B27
:104B6000209302012091020115E0440F551F1A9570
:104B7000E1F7642F60762F79262B20930201458D73
:104B8000568DDA013C9127A123232C93458D568D18
:104B9000DA013C9123A1232B2C93A50194012150F0
:104BA00031094109510949015A0106E0B694A79417
:104BB000979487940A95D1F78401FE1009C2015099
:104BC000110908F465C080E1A58DB68D6C9197A19F
:104BD00096239C93A58DB68D6C9193A1962B9C9357
:104BE000A58DB68D6C9197A196239C93A58DB68DBE
:104BF0006C9193A1962B9C93A58DB68D6C9197A1EA
:104C000096239C93A58DB68D6C9193A1962B9C9326
:104C1000A58DB68D6C9197A196239C93A58DB68D8D
:104C20006C9193A1962B9C93A58DB68D6C9197A1B9
:104C300096239C93A58DB68D6C9193A1962B9C93F6
:104C4000A58DB68D6C9197A196239C93A58DB68D5D
:104C50006C9193A1962B9C93A58DB68D6C9197A189
:104C600096239C93A58DB68D6C9193A1962B9C93C6
:104C7000A58DB68D6C9197A196239C93A58DB68D2D
:104C80006C9193A1962B9C93815009F09DCF97CF67
:104C90002F73215008F4F3C1A58DB68D9C9187A187
:104CA00089238C93A58DB68D9C9183A1892B8C93A0
:104CB000A58DB68D9C9187A189238C93A58DB68DEA
:104CC0009C9183A1892B8C93E4CFFEB0BF2DBF7C38
:104CD000FB2EFC28FEB8FEB0AF2DA77FFA2EFD28D4
:104CE000FEB8F4B2BF2DBF7DFB2EFD2AF4BAF090C2
:104CF0000201AF2DA77EFA2EFC2AF0920201F0905D
:104D00000201BF2DBF79FB2EF82AF0920201E58C3B
:104D1000F68CD7019C90A7A0A920AC92E58CF68CCC
:104D2000D7019C90A3A0A928AC92FEB0BF2DBF7C58
:104D3000FB2EF728FEB8FEB0AF2DA77FFA2EF6287F
:104D4000FEB8F4B2BF2DBF7DFB2EF72AF4BAF09067
:104D50000201AF2DA77EFA2EF92AF0920201F090FF
:104D60000201BF2DBF79FB2EF62AF0920201E58CDD
:104D7000F68CD7019C90A7A0A920AC92E58CF68C6C
:104D8000D7019C90A3A0A928AC92FEB0BF2DBF7CF8
:104D9000FB2EFC28FEB8FEB0AF2DA77FFA2EFD2813
:104DA000FEB8F4B2BF2DBF7DFB2EFD2AF4BAF09001
:104DB0000201AF2DA77EFA2EFC2AF0920201F0909C
:104DC0000201BF2DBF79FB2EF82AF0920201E58C7B
:104DD000F68CD7019C90A7A0A920AC92E58CF68C0C
:104DE000D7019C90A3A0A928AC92FEB0BF2DBF7C98
:104DF000FB2EF728FEB8FEB0AF2DA77FFA2EF628BF
:104E0000FEB8F4B2BF2DBF7DFB2EF72AF4BAF090A6
:104E10000201AF2DA77EFA2EF92AF0920201F0903E
:104E20000201BF2DBF79FB2EF62AF0920201E58C1C
:104E3000F68CD7019C90A7A0A920AC92E58CF68CAB
:104E4000D7019C90A3A0A928AC92FEB0BF2DBF7C37
:104E5000FB2EFC28FEB8FEB0AF2DA77FFA2EFD2852
:104E6000FEB8F4B2BF2DBF7DFB2EFD2AF4BAF09040
:104E70000201AF2DA77EFA2EFC2AF0920201F090DB
:104E80000201BF2DBF79FB2EF82AF0920201E58CBA
:104E9000F68CD7019C90A7A0A920AC92E58CF68C4B
:104EA000D7019C90A3A0A928AC92FEB0BF2DBF7CD7
:104EB000FB2EF728FEB8FEB0AF2DA77FFA2EF628FE
:104EC000FEB8F4B2BF2DBF7DFB2EF72AF4BAF090E6
:104ED0000201AF2DA77EFA2EF92AF0920201F0907E
:104EE0000201BF2DBF79FB2EF62AF0920201E58C5C
:104EF000F68CD7019C90A7A0A920AC92E58CF68CEB
:104F0000D7019C90A3A0A928AC92FEB0BF2DBF7C76
:104F1000FB2EFC28FEB8FEB0AF2DA77FFA2EFD2891
:104F2000FEB8F4B2BF2DBF7DFB2EFD2AF4BAF0907F
:104F30000201AF2DA77EFA2EFC2AF0920201F0901A
:104F40000201BF2DBF79FB2EF82AF0920201E58CF9
:104F5000F68CD7019C90A7A0A920AC92E58CF68C8A
:104F6000D7019C90A3A0A928AC92FEB0BF2DBF7C16
:104F7000FB2EF728FEB8FEB0AF2DA77FFA2EF6283D
:104F8000FEB8F4B2BF2DBF7DFB2EF72AF4BAF09025
:104F90000201AF2DA77EFA2EF92AF0920201F090BD
:104FA0000201BF2DBF79FB2EF62AF0920201E58C9B
:104FB000F68CD7019C90A7A0A920AC92E58CF68C2A
:104FC000D7019C90A3A0A928AC92BA94B1107DCE31
:104FD0000150110918F030E1B32E77CE2F73215014
:104FE00008F44DC03EB13F7C3C293EB93EB1377F0D
:104FF0003D293EB934B33F7D3D2B34BB3091020196
:10500000377E3C2B30930201309102013F79382BDF
:1050100030930201458D568DDA011C9137A1312361
:105020003C93458D568DDA011C9133A1312B3C9375
:105030003EB13F7C37293EB93EB1377F36293EB974
:1050400034B33F7D372B34BB30910201377E392B8F
:1050500030930201309102013F79362B30930201E7
:10506000458D568DDA011C9137A131233C93458D36
:10507000568DDA011C9133A1312B3C93B0CFA18D19
:10508000B28D9C9181A1892B8C93DF91CF911F913F
:105090000F91FF90EF90DF90CF90BF90AF909F90D7
:1050A0008F907F906F900895E3E0F5E04481558103
:1050B0006081718183EB94E03EC1CF92DF92EF92E9
:1050C000FF920F931F93CF93DF936B01770FEE083F
:1050D000FF08F7FE19C0EC016DE2FED18C014427F8
:1050E0005527BA014C195D096E097F092AE0CE01E6
:1050F0000FD2800F911FDF91CF911F910F91FF90E1
:10510000EF90DF90CF9008952AE0B701A601DF91DC
:10511000CF911F910F91FF90EF90DF90CF90F8C14A
:105120000F931F93CF93DF93CDB7DEB728970FB6BA
:10513000F894DEBF0FBECDBFE091EB04F091EC041C
:10514000138615861486DF011B9633961E92EA1786
:10515000FB07E1F71092E9041092EA0401E0BE01B6
:105160006F5F7F4F8091EB049091EC045EDB8823AE
:1051700009F464C067E0CE0101969FDA988589132F
:10518000EECF8091E504811121C08091EB049091D4
:10519000EC0414DBBE016F5F7F4F8091EB049091B4
:1051A000EC04CBDA40E064EB8091EB049091EC04EA
:1051B00091DA8091EB049091EC04DCDA182F809165
:1051C000EB049091EC04FADA112361F11091E604FA
:1051D0008981803181F1CE010196AADB811718F413
:1051E0008091E60408C08981803111F48CE003C00D
:1051F000CE0101969DDB8093E6048091E9048F5FE8
:105200008093E9048981883281F030F4803169F03B
:10521000823209F0A4CF09C08B3339F0823409F00F
:105220009ECF03C00093E504D1CF8091EA048F5F45
:105230008093EA0494CF1D3098F6D8CF28960FB605
:10524000F894DEBF0FBECDBFDF91CF911F910F91BC
:1052500008958F929F92AF92BF92CF92DF92EF927A
:10526000FF92CF93DF938091EB049091EC04A6DA48
:1052700040E06CEC8091EB049091EC042BDA4091CF
:10528000E50464E48091EB049091EC0423DA8091CE
:10529000E704882309F444C0E091E604E950E330D0
:1052A00040F4F0E0EE0FFF1FEA5FFD4FC081D181B7
:1052B00002C0CEEED2E08091E804882309F180910B
:1052C000E50481111DC00E94A3324B015C016E01F7
:1052D000DD0FEE08FF088091EB049091EC044ADAB0
:1052E0008130F1F00E94A332DC01CB018C199D09C1
:1052F000AE09BF0988159905AA05BB0560F310C062
:10530000BE01DD0F880B990BDF91CF91FF90EF90DD
:10531000DF90CF90BF90AF909F908F900C946B32A6
:10532000DF91CF91FF90EF90DF90CF90BF90AF9043
:105330009F908F900895CF92DF92EF92FF920F93FC
:105340001F93CF93DF936C017A018B01C0E0D0E013
:10535000CE15DF0581F0D8016D918D01D601ED915B
:10536000FC910190F081E02DC6011995892B11F077
:105370002196EECF7E01C701DF91CF911F910F9152
:10538000FF90EF90DF90CF900895FC01538D448DF6
:10539000252F30E0842F90E0821B930B541710F0E0
:1053A000CF96089501970895FC01918D828D9817ED
:1053B00061F0828DDF01A80FB11D5D968C91928DF9
:1053C0009F5F9F73928F90E008958FEF9FEF0895F6
:1053D000FC01918D828D981731F0828DE80FF11DBF
:1053E000858D90E008958FEF9FEF08958EEC93E008
:1053F000DED621E0892B09F420E0822F0895EF9278
:10540000FF920F931F93CF93DF93EC0181E0888F7E
:105410009B8D8C8D981305C0E889F989808185FD65
:1054200025C0F62E0B8D10E00F5F1F4F0F73112755
:10543000E02E8C8DE8120BC00FB607FCFACFE8897E
:10544000F989808185FFF5CFCE014DD7F2CF8B8DC5
:10545000FE01E80FF11DE35AFF4FF0829FB7F89469
:105460000B8FEA89FB89808180620AC09FB7F8941C
:10547000EE89FF896083E889F9898081837080647F
:1054800080839FBF81E090E0DF91CF911F910F91CA
:10549000FF90EF900895CF93DF93EC01888D8823E0
:1054A000C1F0EA89FB89808185FD05C0A889B98999
:1054B0008C9186FD0EC00FB607FCF5CF808185FF6D
:1054C000F2CFA889B9898C9185FFEDCFCE010BD79A
:1054D000E8CFDF91CF910895DC01ED91FC9101902F
:1054E000F081E02D19946115710579F0FB010190AF
:1054F0000020E9F73197AF01461B570BDC01ED9116
:10550000FC910280F381E02D199480E090E00895F1
:105510008F929F92AF92BF92EF92FF920F931F9341
:10552000CF93DF93CDB7DEB7A1970FB6F894DEBF68
:105530000FBECDBF7C01FA01CB0119A2223008F4C5
:105540002AE08E010F5D1F4F822E912CA12CB12CD1
:10555000BF01A50194010E941342F901CA01015043
:1055600011096A3014F4605D01C0695CD8016C9364
:10557000232B242B252B61F7B801C701B4DFA1969B
:105580000FB6F894DEBF0FBECDBFDF91CF911F9154
:105590000F91FF90EF90BF90AF909F908F900895E4
:1055A0007F928F929F92AF92BF92CF92DF92EF92B3
:1055B000FF920F931F93CF93DF938C016A017B01BE
:1055C000722E9A01AB01C701B6010E946C43882379
:1055D00019F06CE773E027C046015701E894B7F86B
:1055E0002FEF3FEF4FE75FE7C501B4010E946C4327
:1055F00081110DC02FEF3FEF4FE75FE7C501B40109
:105600000E94EB4018161CF460E873E00CC02FEF0A
:105610003FEF4FE75FE4C701B6010E9468431816E9
:105620008CF464E873E0C801DF91CF911F910F9172
:10563000FF90EF90DF90CF90BF90AF909F908F90B2
:105640007F9051CF2FEF3FEF4FE75FECC701B601DF
:105650000E94EB4087FDE5CF20E030E0A901C701C3
:10566000B6010E94EB4087FF09C06DE2C80134DF3C
:10567000EC01F7FAF094F7F8F09402C0C0E0D0E043
:10568000B12C60E070E080E09FE37B1441F020E00B
:1056900030E040E251E40E94CF42B394F6CFA7013C
:1056A00096010E946B426B017C010E943C434B01BE
:1056B0005C012AE0AB01BC01C8012ADFC80FD91F79
:1056C0007720B1F1C501B4010E94EF409B01AC010C
:1056D000C701B6010E946A426B017C016EE2C801FB
:1056E000FBDEC80FD91F20E030E040E251E4C701E3
:1056F000B6010E9450414B015C010E943C436B018A
:10570000E12CF12C2AE0B701A601C80101DFC80F86
:10571000D91FC701B6010E94EF409B01AC01C50132
:10572000B4010E946A426B017C017A947110DBCF54
:10573000CE01DF91CF911F910F91FF90EF90DF90FD
:10574000CF90BF90AF909F908F907F900895CBCED9
:105750001F920F920FB60F9211240BB60F922F9338
:105760003F934F935F936F937F938F939F93AF93E9
:10577000BF93EF93FF938EEC93E0B5D5FF91EF913C
:10578000BF91AF919F918F917F916F915F914F9159
:105790003F912F910F900BBE0F900FBE0F901F9057
:1057A00018951F920F920FB60F9211240BB60F92FD
:1057B0002F938F939F93EF93FF93E091DE03F091EC
:1057C000DF038081E091E403F091E50382FD12C0E4
:1057D00090818091E7038F5F8F732091E803821798
:1057E00051F0E091E703F0E0E253FC4F958F809396
:1057F000E70301C08081FF91EF919F918F912F91DD
:105800000F900BBE0F900FBE0F901F9018954F92E8
:105810005F926F927F928F929F92AF92BF92CF9240
:10582000DF92EF92FF920F931F93CF93DF93CDB749
:10583000DEB7AA970FB6F894DEBF0FBECDBF61E00A
:105840008DE0C9D50E943A370E94001483E00E947F
:10585000853460E070E083EB94E00E94B637F9DCB9
:105860005FDC19A61AA68E010F5F1F4F88E2F801B0
:1058700011928A95E9F79E01265D3F4FAE01475D83
:105880005F4F67E170E089EF94E00E94AF2160E034
:1058900084E4A1D584E4DBD5BC01990F880B990B76
:1058A0000E94F14020E030E040EA50E40E94504184
:1058B00020E030E040E85AE30E9450412DEC3CECFF
:1058C0004CE45EE30E94CF422B013C0186E12DD5E2
:1058D0004C0185E4BCD59093CD038093CC0361E06B
:1058E00086E279D561E086E248D561E088E273D549
:1058F00061E088E242D561E08AE26DD561E08AE24A
:105900003CD561E084E367D561E084E336D561E0AE
:1059100082E361D561E082E330D561E080E35BD56D
:1059200061E080E32AD561E08EE255D561E08EE248
:1059300024D584E08093C7040FEF1FEF1093C604B3
:105940000093C5041093C4040093C3041092C004D0
:105950001092BF0487E390E09093C2048093C10447
:1059600063E672E083EB94E0F2DE83E0D82ED0921F
:10597000C7041093C6040093C5041093C404009395
:10598000C30493E2A92EB12CB092C004A092BF042C
:1059900080E590E09093C2048093C10468E772E0D0
:1059A00083EB94E0D4DE20EEE22EFF24FA94F09212
:1059B000C604E092C504F092C404E092C30469A551
:1059C00070E083EB94E079DB6AE872E083EB94E0CB
:1059D000BEDECC24C394C092C7046DE872E083EBB2
:1059E00094E0B5DED092C704B092C004A092BF0488
:1059F00089E690E09093C2048093C1041093C6049A
:105A00000093C5041093C4040093C3046FE872E0CC
:105A100083EB94E09CDEF092C604E092C504F09221
:105A2000C404E092C3046AA570E083EB94E045DB14
:105A30006EE972E083EB94E08ADED092C704B09204
:105A4000C004A092BF0482E890E09093C2048093C7
:105A5000C1041093C6040093C5041093C4040093BA
:105A6000C30463E373E083EB94E071DED092C70478
:105A70001093C6040093C5041093C4040093C30498
:105A8000B092C004A092BF048BE990E09093C2044E
:105A90008093C10461EA72E083EB94E058DEF092F7
:105AA000C604E092C504F092C404E092C304D7D2C5
:105AB0000E94374383EB94E000DB6AE872E083EBFB
:105AC00094E045DEC092C7046DE872E083EB94E099
:105AD0003EDE82E08093C70485E991E09093C004A4
